:020000040800F2
:100000006805002001010008271F0008831A000866
:10001000251F0008DB080008B522000800000000CA
:100020000000000000000000000000002120000887
:100030000D0A0008000000005F1F000823200008D0
:100040001B0100081B0100081B0100081B01000820
:100050001B0100081B0100081B0100081B01000810
:100060001B0100081B0100081B0100081B01000800
:100070001B0100081B0100081B0100081B010008F0
:100080001B0100081B0100081B0100081B010008E0
:100090001B0100081B0100081B0100081B010008D0
:1000A0001B0100081B0100081B0100081B010008C0
:1000B0001B0100081B0100081B0100081B010008B0
:1000C0001B0100081B0100081B0100081B010008A0
:1000D0001B0100081B0100081B0100081B01000890
:1000E0001B0100081B0100081B010008DFF80CD0F1
:1000F00000F090FB00480047DD2C00086805002058
:100100000648804706480047FEE7FEE7FEE7FEE7B1
:10011000FEE7FEE7FEE7FEE7FEE7FEE799200008C0
:10012000ED000008202A04DB203A21FA02F0002129
:10013000704721FA02F3D040C2F1200291400843F7
:100140001946704780EA010210B502F000434000F2
:1001500022D04A001FD0010E01EB1261C0F35600FD
:10016000C2F3560240F4000042F40002A0FB022059
:1001700000047F39140400D0401C50EA124001D41E
:100180004000491EC2B20C0604EBD010401C4008CF
:10019000802A02D003E0002010BD20F001000029D9
:1001A00000DA0020184310BD2DE9FE4F804681EA99
:1001B0000300C00F0C46009021F0004123F00045E1
:1001C000B8EB0200A94105D24046214690461C46A4
:1001D0000B46024623F00040104347D0270DC7F3DB
:1001E0000A00C3F30A510290401A019040286BDACA
:1001F000C3F3130040F4801B0098924620B1002303
:10020000D2EB030A63EB0B0B01985946C0F1400295
:10021000504600F00AFA06460D4650465946019AE5
:1002200000F012FA10EB08006141002487EA115235
:1002300084EAE7731A4340D0009A62B3019A012A14
:100240004FEA075215DC001B61EB02014FF0004240
:1002500002EA0752CDE90042001C41F58011324606
:100260002B4600F049FA03B0BDE8F08F4046214626
:10027000F9E7001B61EB0201001C41F58013001837
:100280005B412018A2F5001747EB030140EAD57047
:10029000B6196D4111E06D084FEA360645EAC075A2
:1002A0004FEA0752001B61EB0201001C41F580116F
:1002B00049084FEA30000019514132462B4603B03D
:1002C000BDE8F04F00F009BA009801224000002379
:1002D000D0EB020263EBE073009821464FEAE07432
:1002E000B8EB000061EB0401E9E783F000435BE752
:1002F00081F0004158E72DE9FE4F81EA030404F044
:10030000004421F0004100944FF0000B23F0004323
:1003100050EA01045ED052EA03045BD0C3F30A54EE
:10032000C1F30A552C44A4F2F3340194A0FB025407
:10033000C1F3130141F48011C3F3130343F4801399
:1003400001FB024400FB034E840A970A44EA8154ED
:1003500047EA8357A4FB076802958D0A05FB0785CA
:100360004FEA932C04FB0C542705029D4FEA0658D4
:1003700047EA1637B5EB08056EEB070C870E920EB1
:1003800047EA811742EA8312A7FB0201B6EB0B0191
:1003900064EB00042B0D43EA0C335E1844EB1C5055
:1003A000DA465146E7FB0201C5F313044FEA0B336B
:1003B00043EA14534FEA0432019C43EA0603A4F1D2
:1003C0000C040294009CCDE900B400F095F903B050
:1003D000BDE8F08F00200146F9E72DE9F04D81EAF4
:1003E000030404F0004B21F0004514464FF0000ACE
:1003F00023F0004150EA050220D054EA01021DD04A
:10040000C5F30A570246C5F31303C1F31300C1F342
:100410000A5640F4801543F48013A7EB0608101B1E
:10042000D64608F2FD3873EB050002D308F1010847
:1004300001E092185B41B8F1000F03DA0020014699
:10044000BDE8F08D00204FF48011064684460EE092
:10045000171B73EB050705D3121B63EB050306435C
:100460004CEA010C49084FEA300092185B4150EA0F
:100470000107EDD152EA030012D082EA040083EAB8
:100480000501084305D0101BAB4106D20122002311
:1004900006E000224FF0004302E06FF0010253102B
:1004A0001AEB06004CEB085110EB0A0041EB0B0174
:1004B000BDE8F04D00F011B996230022114600F07E
:1004C000DEB80EB540F2334102910021CDE90011B2
:1004D0000A460B4600F010F903B000BD00F00042E0
:1004E00030F000400AD0C10D01F56071C0F3160074
:1004F00042EA0151C20840071143704700200146FB
:100500007047000030B5041E71F1000404DB4FF0A9
:100510000044404264EB0101141E73F1000405DB4A
:100520001C464FF00043524263EB04038B4208BF6A
:10053000824230BD30B5041E71F1000404DB4FF07F
:100540000044404264EB0101141E73F1000405DB1A
:100550001C464FF00043524263EB0403994208BF2C
:10056000904230BD01F0004330B421F0004150EA28
:10057000010206D00A0DA2F56072C1F31301002A30
:1005800002DC30BC00207047440F44EAC104C100C3
:10059000E01830BC00EBC25000F068B830B50B4634
:1005A000014600202022012409E021FA02F59D42A3
:1005B00005D303FA02F5491B04FA02F52844151E77
:1005C000A2F10102F1DC30BD2DE9F05F054600200B
:1005D00092469B4688460646814640241BE02846B4
:1005E000414647462246FFF79DFD53465A46C01AEC
:1005F000914110D311461846224600F016F82D1AE4
:1006000067EB01084F4622460120002100F00DF85B
:1006100017EB00094E41201EA4F10104DFDC48461F
:1006200031462A464346BDE8F09F202A04DB203AA3
:1006300000FA02F1002070479140C2F1200320FA35
:1006400003F3194390407047202A06DBCB17203A6A
:1006500041FA02F043EAE07306E041FA02F3D040C7
:10066000C2F1200291400843194670470029A8BFF3
:100670007047401C490008BF20F00100704710B4CB
:10068000B0FA80FC00FA0CF050EA010404BF10BC80
:10069000704749B1CCF1200421FA04F411FA0CF1AD
:1006A00018BF012121430843A3EB0C01CB1D4FEAE6
:1006B00000614FEA102042BF002010BC704700EBE1
:1006C000C35010440029A4BF10BC7047401C49000F
:1006D00008BF20F0010010BC704710B5141E73F164
:1006E000000408DA401C41F1000192185B411A43F2
:1006F00001D120F0010010BD2DE9F04D92469B463E
:1007000011B1B1FA81F202E0B0FA80F220329046E3
:10071000FFF78BFF04460F4640EA0A0041EA0B014F
:1007200053465A46084313D0114653EA010019D0E4
:10073000C8F140025046FFF7F5FC05460E4650460C
:1007400059464246FFF771FF084305D0012004E0F7
:1007500020463946BDE8F08D0020054346EAE076A4
:100760002C4337430A986305E40AA0EB08000022F3
:10077000FD0A44EA47540A3002D500200146E9E761
:10078000010510196941DDE9084500196941BDE815
:10079000F04DA2E770B521F0004303430CD0C1F344
:1007A0000A550024D5EB040564EB0403D617AD1AF3
:1007B000B34102DB0020014670BD201841EB02511D
:1007C00070BD0EB5C10F80EAE0700844CA07002171
:1007D00040F233438DE80E000A460B46FFF78CFFCC
:1007E00003B000BDC1F30A52C1F3130140F2FF335D
:1007F00041F480119A4202DA00200146704740F22B
:1008000033439A42A2F2334202DC5242FFF78ABCDF
:10081000FFF70BBF064C074D06E0E06840F0010310
:1008200094E8070098471034AC42F6D3FFF762FC17
:10083000E0390008003A00082DE9F04D00231A467F
:100840001B1A8A4103DB00200146BDE8F08DC1F38D
:100850000A52C1F3130141F480154FF0000BD10788
:1008600002D100186D41521E0027044640F2FF11CC
:10087000384601EB620A3E468046024600204FF4AD
:100880008011FFF74FFCC2197141BB1846EB010004
:10089000B4EB030C75EB000C04D3E41A65EB000514
:1008A00017460E46241908F101006D418046342890
:1008B000E3DDF91946EB0600091BA84103D24FF00E
:1008C000FF32134601E0002213461BEB070046EB04
:1008D0000A51BDE8F04DFFF700BFFEE72DE9F047F4
:1008E0000446408EFFF7E8FDE6683146FFF72AFC34
:1008F000FFF7F4FD0022254BFFF76FFD07460D467D
:10090000E08DFFF7DEFD0022214BFFF7F4FC3A46B5
:100910002B46FFF749FCC4E9060105468846208EB0
:10092000FFF7CAFD3146FFF70DFCFFF7D7FD0022A8
:10093000184BFFF752FD07460E46A08DFFF7C1FD8D
:10094000DFF8549000224B46FFF7D5FC3A46334679
:10095000FFF72AFCC4E9080107460E466068FFF766
:10096000B0FD3A463346FFF7C6FC00220B4BFFF7BB
:1009700034FD2A464346FFF7B8FC00224B46FFF7FA
:100980002CFDFFF7EFFDA062BDE8F087000060409E
:100990000000F040000070400000E04000004041D6
:1009A00070B50446808EFFF78CFD0022134BFFF7D5
:1009B000A2FC06460D46A068FFF783FD32462B4693
:1009C000FFF793FCFFF7CEFD0546E060E08EFFF7F2
:1009D00073FD2946FFF7B6FBFFF780FD0022084BA9
:1009E000FFF7FBFC0022074BFFF7DEFB0022064B64
:1009F000FFF7F3FCFFF7B6FD206170BD000070400B
:100A00000000604100409F400000594070477FB5A2
:100A10000446482014258DF80C000095012303AAF4
:100A2000EE21206800F0DEF9322000F03FF80321CB
:100A300004F13A008DE8230001230022EE21206812
:100A400000F06CFA94F83A0094F83B10000400EBC4
:100A5000012094F83C10084460607FBD7FB50446D7
:100A6000582014258DF80C000095012303AAEE21CF
:100A7000206800F0B7F9322000F018F8032104F1E3
:100A80003A008DE8230001230022EE21206800F0C7
:100A900045FA94F83A0094F83B10000400EB01206A
:100AA00094F83C100844A0607FBD000070B5044677
:100AB00000F0F2F80546601C02D0044800780444B7
:100AC00000F0EAF8401BA042FAD370BD20000020DD
:100AD0002DE9F84FDFF890A100220AF1040B14462B
:100AE00001274FF00F090BF1040E00BF0B6807FA46
:100AF00004F52B40AB4274D1DFF870C14E68A6EB11
:100B00000C0866452BD00DDC032E34D005DC36B343
:100B1000012E19D0022E2FD11BE0112E16D0122E2D
:100B20002AD119E0B8F5881F19D006DCB8F5803F46
:100B300015D0B8F5801F1FD111E0B8F5001F0ED0F9
:100B4000B8F5041F18D10AE0CA6815E0CA68121D7A
:100B500012E0CA6808320FE0CA680C320CE08A68FA
:100B60002AB1012A4FF0080203D0456104E00422B3
:100B700002E0056100E00022FF2B01D8064601E0FB
:100B800000F104064FEA840501D9A5F12005D6F845
:100B900000C009FA05F82CEA080C02FA05F54CEA3F
:100BA000050CC6F800C04D68ED0057D5304DAE6954
:100BB00046F00106AE61AD6924F0030605F00105BB
:100BC00000952C4D06EB050CDCF80850A6074FEA03
:100BD000167809FA08F6B543274EB04202D100262E
:100BE00010E03BE0254EB04201D101260AE0244E40
:100BF000B04201D1022605E0224EB04201D10326C7
:100C000000E0042606FA08F62E43CCF808604D688A
:100C1000DAF80060ED03554601D51E4300E09E431F
:100C20002E604D68DBF80060AD035D4601D51E43C4
:100C300000E09E432E604D68DEF80060ED027546D0
:100C400001D51E4300E09E432E604D68AD020E4D5F
:100C50002E6801D51E4300E09E432E60641C102CBC
:100C6000FFF444AFBDE8F88F00040140000011100C
:100C7000001002400000014000080140000C01404B
:100C800000100140001401400C0401400AB1016150
:100C900070470904FBE700000148806870470000C6
:100CA0002000002070B504001BD094F83D00002502
:100CB00020B984F83C50204600F040FA242084F803
:100CC0003D002068016821F00101016000F0B4FBE3
:100CD000404A6168914201D83F4900E03F4988425B
:100CE00001D2012070BD3E492368B0FBF1F159608B
:100CF0006368934206D94FF4967359434FF47A735D
:100D0000B1FBF3F12368491C19626168914210D864
:100D10004900401EB0FBF1F2521CC2F30B02042A40
:100D200001D2042022E0B0FBF1F0401CC0F30B0024
:100D30001CE0A368CBB301EBC10202EB0116421E1B
:100D4000B2FBF6F2521C42F48042120536D06BB36D
:100D500001EBC10202EB0111401EB0FBF1F0401C9F
:100D6000C0F30B0040F4804040F400402168C861AB
:100D7000D4E90701084321680860D4E90310084357
:100D800021688860D4E9050108432168C8602068AB
:100D9000016841F0010101602564202084F83D00D4
:100DA000256384F83E50002070BD00E008E001EBB0
:100DB0004106421EB2FBF6F2521CC6E70120D5E7FF
:100DC00001EB4101401EB0FBF1F0401CC0F30B00F1
:100DD000CAE70000A086010080841E0000093D00D3
:100DE00040420F002DE9F84F1F4690468A460446C0
:100DF000DDF82890FFF750FF064694F83D002028C4
:100E00007ED11923012243492046009600F037FF86
:100E100000287DD194F83C00012879D0012084F885
:100E20003C0020680168C90703D1016841F0010155
:100E300001602068016821F400610160212084F8CC
:100E40003D00102084F83E0000252564C4F824806D
:100E500067853148E062608D208533464A465146B9
:100E6000204600F023FE28B1206C84F83C50042872
:100E70004CD00DE0206841698069009030E0324636
:100E80004946204600F0A1FF28B1206C042838D044
:100E90000320BDE8F88F606A411C61622168007818
:100EA0000861608D401E6085208D401E80B22085C7
:100EB00021684A69D24352070BD450B1606A421C80
:100EC000626200780861608D401E6085208D401E42
:100ED000208532464946204600F0AAFE0028D4D19B
:100EE000208D0028CBD154F83D0B016841F40071EE
:100EF0000160202004F81E09E57765770020C8E727
:100F000006E02068016841F4007101600120C0E73B
:100F10000220BEE7020010000000FFFF2DE9FF4F96
:100F200083B09A46DDE9118793460446DDF8409088
:100F3000FFF7B2FE054694F83D00202872D1192330
:100F400001227B492046009500F099FE0028F5D14A
:100F500094F83C00012865D0012084F83C0020680A
:100F60000168C90703D1016841F0010101602068EF
:100F7000016821F400610160222084F83D004020D6
:100F800084F83E0000262664C4F82490A4F82A8041
:100F90006848E062608D2085CDE9007553465A4669
:100FA0002046049900F0CCFD28B1206C84F83C6008
:100FB000042851D075E0208DDFF87C8168B10128CC
:100FC00014D00228206801681ED041F480610160BD
:100FD00020684169806900909BE0206841698169CF
:100FE0000091016841F40071016092E0206801689D
:100FF00021F48061016072B62068416981690091C5
:10100000016841F400710AE041F40061016072B6C8
:101010002068416981690091016821F48061016063
:1010200062B676E081E0032850D801280BD0022870
:101030003B464FF0000241462046009512D000F09A
:101040001EFE70BB13E02A463946204600F08CFE97
:1010500030B1206C202824D0012007B0BDE8F08FEB
:1010600020684BE000F00BFED8B972B61BE0206898
:10107000016821F48061016072B620680169606ACC
:10108000421C62620170208D401E2085608D401ED2
:1010900060853B46002241462046009500F0EFFD6A
:1010A00008B10320D9E72068016841F400710160AC
:1010B00020680169606A421C62620170208D401ED6
:1010C0002085608D401E608562B6C9E72A46394694
:1010D000204600F049FE0028BBD120680169606A03
:1010E000421C62620170208D401E2085608D401E72
:1010F000608520684169C94349070AD40169606A6B
:10110000421C62620170208D401E2085608D401E51
:101110006085208D002886D1202084F83D0084F849
:101120003E6084F83C60002097E7022095E70000CD
:10113000020010000000FFFF0400010000B500687D
:101140000C4985B0884212D1C02000901220019035
:101150000320039069460848FFF7BAFC0748C169B5
:1011600041F40011C161C06900F40010049005B0A1
:1011700000BD000000540040000C0140001002407F
:101180000248816802781144816070472000002085
:10119000074810B5016841F010010160032000F01C
:1011A00089F8002000F006F800F024F8002010BDB7
:1011B0000020024070B50D4D04464FF47A71287836
:1011C000B1FBF0F00A490968B1FBF0F000F087FBD1
:1011D00048B9102C07D200222146501E00F04AF8D0
:1011E00000206C6070BD012070BD00002000002058
:1011F0002C0000201D4808B5816941F00101816182
:10120000806900F001000090032000F053F80022F4
:1012100011466FF00B0000F02DF8002211466FF020
:101220000A0000F027F8002211466FF0090000F0D4
:1012300021F800221146501F00F01CF80022114630
:10124000101F00F017F800221146901E00F012F84F
:1012500000221146501E00F00DF80548416821F0AB
:10126000E06141F00071416008BD000000100240E3
:1012700000000140F0B40E4B1B680C46C3F3022380
:10128000C3F10705042D00D90425191D072901D232
:10129000002300E0DB1E012606FA05F1491E21406D
:1012A00099409E40761E16403143F0BC00F03CBE93
:1012B0000CED00E0064900F0070208684FF6FF0356
:1012C000184040EA0220034A1043086070470000BB
:1012D0000CED00E00000FA052DE9F047DFF83C8155
:1012E00005460E46D8F8000000F00700B0420CD2C8
:1012F000D8F8001021F007013143C8F80010D8F8E1
:10130000000000F00700B04263D12878444C800709
:1013100005D56068A96820F0F0000843606028786F
:10132000C00745D06868012816D02168022816D069
:10133000890700294DDA616821F0030101436160EA
:10134000FFF7AAFC6968074641F2883001290FD0EF
:101350000229814619D027E021688903E9E789013C
:10136000E7E700BFFFF798FCC11B494501D918E02A
:1013700081466068C0F381000128F3D118E000BF06
:10138000FFF78AFCC11B49450BD86068C0F3810098
:101390000228F5D10CE000BFFFF77EFCC11B4945D8
:1013A00002D90320BDE8F087606810F00C0FF3D17C
:1013B000D8F80010404601F00701B1420BD901688E
:1013C00021F0070131430160006800F00700B042DE
:1013D00001D00120E6E72878400705D56068E96874
:1013E00020F4E060084360602878000706D5606854
:1013F000296920F4605040EAC100606000F03CF8C8
:101400006168084AC1F30311515CC840064908608D
:101410000020FFF7CFFE0020C4E7000000200240BC
:1014200000100240383900082C00002001480068F4
:10143000704700002C0000200448054900684968F6
:10144000044AC1F30221515CC84070472C000020BF
:1014500000100240483900080448054900684968FE
:10146000044AC1F3C221515CC84070472C000020DF
:10147000001002404839000812A185B00FC98DE85C
:101480000F0014A0144A006804905168134801F03A
:101490000C03042B10D0082B0ED1C1F38343C903D6
:1014A0001DF803000AD5516804AAC1F34041515CFC
:1014B0000A4A5043B0FBF1F005B070470849484371
:1014C000FAE7000002030405060708090A0B0C0DE1
:1014D0000E0F1010010200000010024000127A00EE
:1014E00000093D002DE9F84F04460078B94DC007CA
:1014F00048D06868C0F38100012807D06868C0F34D
:101500008100022809D16868C00306D528688003D5
:1015100038D5606800286FD034E06068B0F5803F4F
:101520000BD010B1B0F5A02F11D0286820F4803076
:101530002860286820F4802002E0286840F4803089
:101540002860606888B1FFF7A7FB064609E02868B5
:1015500040F480202860F0E7FFF79EFB801B6428A2
:1015600075D828688003F7D50CE0FFF795FB064691
:1015700005E000BFFFF790FB801B6428F0D82868C7
:101580008003F7D42078944E80074FF001094FF084
:1015900000083BD5686810F00C0F07D06868C0F3EE
:1015A0008100022809D16868C00306D42868800732
:1015B00014D5206901281FD110E02069B0B1C6F808
:1015C0000090FFF769FB074605E000BFFFF764FBEB
:1015D000C01B0228C4D828688007F7D5286861692D
:1015E00020F0F80040EAC10028600FE0C6F8008053
:1015F000FFF752FB074606E0E9E000BFFFF74CFBB0
:10160000C01B022823D828688007F7D42078000759
:101610002CD57248A169D9B1C0F80090FFF73CFB06
:10162000074604E0FFF738FBC01B02280FD8686AA2
:101630008007F7D56A484FF4FA510068B0FBF1F023
:10164000009000BF0098411E0091FAD20EE080E0A9
:10165000C0F80080FFF720FB074604E0FFF71CFB03
:10166000C01B022875D8686A8007F7D42078400725
:1016700060D5E8690027C00008D4E86940F08050D0
:10168000E861E869012700F0805000905548016842
:10169000C90513D40168834641F480710160FFF7E6
:1016A000FBFA824606E000BFFFF7F6FAA0EB0A005D
:1016B00064284ED8DBF80000C005F5D5E0680128A5
:1016C0000AD008B1052813D0286A20F0010028624A
:1016D000286A20F0040002E0286A40F00100286235
:1016E000E06841F2883B98B1FFF7D6FA82460BE0FA
:1016F000286A40F004002862EEE700BFFFF7CCFA4A
:10170000A0EB0A0159455AD8286A8007F6D50CE0A3
:10171000FFF7C2FA824605E0FFF7BEFAA0EB0A0126
:1017200059454CD8286A8007F6D41FB1E86920F0E3
:101730008050E861E06988B36968C1F381010229DA
:1017400045D00228C6F8608004D0FFF7A5FA044609
:1017500038E034E0FFF7A0FA074604E0FFF79CFA10
:10176000C01B02282BD828688001F7D4206AB0F566
:10177000803F05D16868A16820F4003008436860A4
:10178000D4E908010843696821F4741108436860CA
:10179000C6F86090FFF780FA044606E015E000BF47
:1017A000FFF77AFA001B022809D828688001F7D5CC
:1017B0000BE000BFFFF770FA001B022802D90320DC
:1017C000BDE8F88F28688001F4D40020F8E70120F4
:1017D000F6E700000010024000004242800442424E
:1017E0002C0000200070004070B5040005D00025DA
:1017F000A56294F8510010B104E0012070BD2046AC
:1018000000F034F8022084F851002068016821F0CB
:1018100040010160D4E901010843D4E903121143F6
:10182000084361690843218B01F400710843E169B1
:101830000843216A0843A16A084321680860A06937
:10184000042101EA1040616A084321684860216868
:10185000E06A08612068C16921F40061C1616565C1
:10186000012084F85100002070BD000010B5006810
:10187000114986B088421CD11048816941F48051D9
:10188000816180690E4C00F480500490A02000908B
:10189000022001900320039069462046FFF718F9C3
:1018A00000214020CDE90001029169462046FFF762
:1018B0000FF906B010BD00000030014000100240DA
:1018C000000801404FF0E0210428086903D020F00F
:1018D00004000861704740F00400FAE7704710B553
:1018E000401EB0F1807F01D3012010BD4FF0E024F5
:1018F00060610F21601700F017FB0020A061072036
:101900002061002010BD10B5FFF7E8FF10BD70B5D5
:10191000040004D094F83900002510B106E001203D
:1019200070BD84F83850204600F022F8242084F856
:1019300039002068C16821F40051C160204600F0E0
:10194000CFFB2068016921F4904101612068416961
:1019500021F02A0141612068C16841F40051C16051
:10196000E563202084F8390084F83A00002070BD37
:1019700010B50068114986B088421DD110488169B0
:1019800041F48041816180690E4C00F480400490F4
:101990004FF40070009002200190032003906946EC
:1019A0002046FFF795F800212015CDE900010291AE
:1019B00069462046FFF78CF806B010BD003801409C
:1019C00000100240000801402DE9F843044690F859
:1019D00039001F4616460D46202850D1A5B19EB1AC
:1019E00094F8380001284AD0012084F838004FF0DC
:1019F0000008C4F83C80212084F83900FFF74CF936
:101A0000A6848146E68426E00120BDE8F883E08CC8
:101A1000401EE084A0684B46B0F5805F4FF00002A6
:101A20004FF080012046009703D000F011FCE8B988
:101A30000DE000F00DFCC8B928882168C0F308004B
:101A40004860206908B16D1C05E0AD1C03E0216809
:101A500015F8010B4860E08C0028D8D14B460022D5
:101A600040212046009700F0F3FB08B10320CCE7AB
:101A7000202084F8390084F838800020C5E702204F
:101A8000C3E7FEE701684A69D24352050CD46FF4FC
:101A900080624A6104210164002140F8301F202245
:101AA000427301730120704700207047F8B5044667
:101AB000C06A1E460D461746042807D0012805D0E7
:101AC00010F5803F02D0206B122804D120680168F5
:101AD00041F480710160134600224FF0011120464D
:101AE000009600F0CCF8A0B92069B0F5804F12D074
:101AF0000620216800EAD51040F0F0000861334666
:101B00003A460E49204600F0EBF838B1206C042824
:101B100011D00320F8BD05F0FE0000E0E8B2216816
:101B20000861064933463A46891F204600F0D8F836
:101B30000028EBD1F8BD0120F8BD0000080001002D
:101B40002DE9F84F0446006889460B9D01689846C8
:101B5000174641F4806101602068016841F480719A
:101B6000016000954FF0011A0022514620460A9B61
:101B700000F085F8F0BB216809F0FE0008610AF169
:101B8000010B2B46594620460A9A00F0A9F818B1D5
:101B9000206C042812D03AE02068416980690090E6
:101BA0002A4620460A9900F010F950B1206C04280A
:101BB0002DD12068016841F4007101600120BDE869
:101BC000F88FFEB2B8F1010F09D02168380A086118
:101BD0002A4620460A9900F0F8F80028E6D1206845
:101BE00006612A4620460A9900F0EFF80028DDD168
:101BF000206800E00BE0016841F48071016000950D
:101C00000022514620460A9B00F039F808B1032013
:101C1000D5E7216809F0FF0040F0010008612B467C
:101C2000594620460A9A00F05BF80028B0D1C6E772
:101C300070B516460D4604461AE02046FFF722FF0F
:101C400008B1012070BD681C12D025B1FFF724F83F
:101C5000801BA8420CD954F8400F40F0200044F8F3
:101C6000100900202060202161732073032070BDC3
:101C700020684069C0434007DFD4002070BD2DE9D3
:101C8000F0471E4690460D460446C1F30747DDF86F
:101C9000209012E0701C10D02EB1FEF7FDFFA0EBDB
:101CA0000900B04209D9002044F8300F20216173A7
:101CB000A07320730320BDE8F0872068012F0AD0AD
:101CC000806925EA00000004000C06D0002141458F
:101CD000E0D00020EFE74069F3E70121F7E70000DB
:101CE0002DE9F0479A4691460D46044600264FF0EE
:101CF0002008C1F307472AE020684069C043400537
:101D000012D42068016841F40071016021686FF409
:101D10008060486104202064266384F83D8084F854
:101D20003C600120BDE8F087B9F1FF3F0FD0B9F169
:101D3000000F05D0FEF7B0FFA0EB0A01494506D918
:101D400044F8306F84F80D8026730320EAE720689A
:101D5000012F07D0D0F8180025EA00000004000C7D
:101D6000E0D0C9E74069F7E72DE9F041002590464A
:101D70000E460446202721E04069C043C0060CD42B
:101D800021686FF0100048612564256384F83D7078
:101D900084F83C500120BDE8F0812EB1FEF77CFFB5
:101DA000A0EB0800B04209D954F8400F40F02000E1
:101DB00044F80409677025700320ECE72068416946
:101DC000C9434906D8D40020E5E770B516460D464C
:101DD00004461AE02046FFF755FE08B1012070BD09
:101DE000681C12D025B1FEF757FF801BA8420CD902
:101DF00054F8400F40F0200044F810090020206003
:101E0000202161732073032070BD20684069C043A6
:101E10000006DFD4002070BD016000F0A1B8000012
:101E20002DE9F0411E4886B0816941F020018161B1
:101E3000816901F020010491816941F0040181610F
:101E4000816901F004010491816941F00801816117
:101E50008069144F00F008000490002210213846D9
:101E6000FEF714FFDFF840804BF2012600223146D6
:101E70004046FEF70BFF10200124CDE900040225A7
:101E8000694603953846FEF723FECDE900646946AE
:101E900040460395FEF71CFE06B0BDE8F081000049
:101EA0000010024000080140000C01400B4810B532
:101EB000094901600A49416000214FF48042816074
:101EC000C0E9031241618161C1610162FEF7EAFE6E
:101ED000002800D0FEE710BD00540040380000206C
:101EE000801A06000E4810B50C4901604FF482714B
:101EF000416000218160C1604FF400720161C0E95E
:101F000005120822C0E90721416281620A21C162EB
:101F1000FFF76AFC002800D0FEE710BD003001404A
:101F20008C000020FEE770470907090E002806DA3A
:101F300000F00F0000F1E02080F8141D704700F160
:101F4000E02080F800147047002202E0835C23B197
:101F5000521C8A42FADB0846704790B270477047BD
:101F60002DE9FE430125044614264FF0020900F135
:101F700038074FF0A00800BF0097CDE9019608EBA5
:101F8000450082B20123EE212068FEF7C7FF10B1A1
:101F90000020BDE8FE8394F8390094F8381000EB77
:101FA000012004EB45016D1C4885072DE4DB012071
:101FB000EFE7000010B5044600F029F8204600F0D5
:101FC0001DF8A06AFEF78AFA064A074B00F0A2FF46
:101FD000064A074BFEF78CF9BDE81040054A064B50
:101FE000FEF789B9C5C551B9895AC83FCD1E6805E4
:101FF00086EC2140CDCCCCCC8C52B34010B50446FD
:10200000FEF705FD2046FEF769FCA06A10BD10B57D
:102010000446FEF723FD2046FEF7C2FC206910BDF2
:10202000704710B5FFF7ACF8BDE81040FFF76BBC88
:1020300030B58FB001210804CDE9001000240294CE
:1020400002250491CDE907504FF4E010099068464D
:10205000FFF748FA00B1FEE70F20CDE90A054FF47B
:102060008060CDE90C4002210AA80E94FFF734F9F4
:1020700000B1FEE7FFF7DAF94FF47A71B0FBF1F047
:10208000FFF72DFC0420FFF71DFC00221146501E17
:10209000FFF7F0F80FB030BD0D48016841F00101C5
:1020A000016041680B4A1140416001680A4A1140D1
:1020B0000160016821F480210160416821F4FE0182
:1020C00041604FF41F0181600449C00308607047FC
:1020D000001002400000FFF8FFFFF6FE08ED00E0F0
:1020E0002DE9F041044600680169E26821F440519D
:1020F000114301612169A0680843616908432168AF
:10210000CA6841F20C639A430243CA60206841697D
:10211000A26921F44071114341614C492068642552
:10212000322688423CD1FFF797F900EBC00101EB62
:10213000001061688900B0FBF1F7FFF78DF900EB43
:10214000C00101EB00106168B0468900B0FBF1F0FE
:10215000B0FBF5F06FF01801484307EB800106EB88
:102160000110B0FBF5F000F0F006FFF775F900EB99
:10217000C00101EB001061688900B0FBF1F0B0FB19
:10218000F5F006EB0016FFF767F900EBC00101EB75
:10219000001061688900B0FBF1F7FFF75DF93BE0E3
:1021A000FFF74AF900EBC00101EB001061688900FC
:1021B000B0FBF1F7FFF740F900EBC00101EB0010B5
:1021C0006168B0468900B0FBF1F0B0FBF5F06FF04C
:1021D0001801484307EB800106EB0110B0FBF5F056
:1021E00000F0F006FFF728F900EBC00101EB00104A
:1021F00061688900B0FBF1F0B0FBF5F006EB00166A
:10220000FFF71AF900EBC00101EB001061688900CB
:10221000B0FBF1F7FFF710F900EBC00101EB001084
:1022200061688900B0FBF1F0B0FBF5F06FF01801C8
:10223000484307EB800108EB0110B0FBF5F0216883
:1022400000F00F0030448860BDE8F08100380140A4
:102250002DE9F041984617460E460446069D1DE0BE
:10226000681C1BD02DB1FEF717FDA0EB0800A8429B
:1022700014D92068C16821F4D071C1602068416917
:1022800021F001014161202084F8390084F83A00EE
:10229000002084F838000320BDE8F0812068006841
:1022A00036EA000004D00020B842D9D00020F3E77D
:1022B0000120F9E7FEE700000FB4084B10B504A9B0
:1022C00002AA039800F06EF9044602A9002000F06B
:1022D00000FD204610BC5DF814FB0000D32C000864
:1022E000490050EAC12018BF04204A0D18BF40F031
:1022F000010040F2FF72B2EB515F08BF40F00200F4
:10230000012808BF052070472DE9F0414F1E00EB62
:10231000C7010446D1E9000115461E4637F0060202
:102320000DD02A463346FDF7E6FF7F1E04EBC703B8
:10233000D3E90023FDF738FF37F00602F1D1022F71
:1023400025D0042F13D0062F18BFBDE8F0812A46F0
:102350003346FDF7D0FFD4E90A23FDF725FF2A46CF
:102360003346FDF7C8FFD4E90823FDF71DFF2A46D1
:102370003346FDF7C0FFD4E90623FDF715FF2A46D3
:102380003346FDF7B8FFD4E90423FDF70DFF2A46D5
:102390003346FDF7B0FFD4E90223FDF705FF2A46D7
:1023A0003346FDF7A8FFD4E90023BDE8F041FDF76F
:1023B000FBBE00000022134610460149FEF70DB88F
:1023C0000000F03FFDF7F0BE002213461046114614
:1023D000FEF703B840F2013200204FF0E041FEF773
:1023E000D9B90000024A00201107FEF7D3B9000056
:1023F00001FDFFFF02E008C8121F08C1002AFAD140
:1024000070477047002001E001C1121F002AFBD174
:10241000704700000149086070470000300000204C
:102420002DE9FF5F82B00021DDE90430020DDDF807
:1024300040B0034318D044F61050A2F2FF3242439A
:102440001514119801281FD0A5EB0B00401C5FEA62
:10245000000A4FF000064E4FDFF83891B046504664
:1024600015D5CAF1000413E0119801244AA30128EC
:1024700001D16FEA0B010298119AC0E90031C0E95D
:10248000024206B0BDE8F09FCBF10000DFE7044652
:102490000021404A491842EB0450CDE9001012E0F7
:1024A000E00707D032463B4640464946FDF723FF4A
:1024B0008046894632463B4610461946FDF71BFFCB
:1024C00006460F466410002CEAD1DDE90401DDE97F
:1024D0000023BAF1000F06DAFDF70DFF42464B4626
:1024E000FDF709FF05E0FDF778FF42464B46FDF793
:1024F00074FF04460E460022284BFEF71BF803D853
:102500004FF0FF30014607E00022254B20463146C0
:10251000FDF74AFEFEF766F9102409E0002C0ADBFD
:102520000A220023FEF750F8039B30321A55641E2E
:1025300050EA0102F2D1641C039AC4F1110314445D
:10254000119A012A03D0012208430DD10AE0084361
:1025500004D000204FF0110B119072E7A3EB0B0594
:102560006D1E0DE05B4504DD4FF0000205F1010535
:1025700004E003DA4FF00002A5F10105002AECD0D7
:1025800002981199C0E90231C0E9004579E70000DD
:10259000000014400000F03F300000000000F04355
:1025A0000000E03F2DE9FF4F95B09B468946064667
:1025B00000250FE2252877D100242746F84A01217B
:1025C000059400E0044316F8013F203B01FA03F0B4
:1025D0001042F7D130782A2811D06FF02F033078CD
:1025E000A0F13002092A16D8059A44F0020402EB41
:1025F000820203EB42021044761C0590EFE759F883
:10260000042B0592002A03DA504244F4005405904A
:1026100044F00204761C30782E2816D116F8010FEB
:1026200044F004042A280DD06FF02F023078A0F176
:102630003003092B09D807EB870302EB4303C718C4
:10264000761CF3E759F8047B761C30786C280FD0A1
:1026500006DC4C2817D068280DD06A2814D104E075
:10266000742810D07A280FD10DE044F400140AE049
:1026700044F4801401E044F440147278824202D1A0
:1026800004F58014761C761C307866280BD013DC99
:10269000582877D009DC002875D04528F6D0462880
:1026A000F4D047281AD19DE118E0632835D064287A
:1026B00079D0652812D195E1702873D008DC67289D
:1026C000F1D069286FD06E280DD06F2806D1B5E003
:1026D00073282CD0752875D0782874D05A4617994D
:1026E00090476D1C75E1C4F30250022809D00328FD
:1026F0000DD0D9F8001004280DD00D6009F104099F
:1027000067E1D9F80010EA17C1E90052F6E7D9F8F5
:1027100000100D80F2E70D70F0E719F8041B8DF83A
:10272000001000208DF80100EA46012003E059F86E
:1027300004AB4FF0FF3061074FF0000102D40DE011
:1027400008F101018846B9420FDA8045F8DB1AF832
:1027500008100029F4D108E008F1010188468142FF
:10276000FADB1AF808100029F6D105985B46A0EBB1
:10277000080721463846179A00F094FA284400EBDF
:10278000080507E04DE029E10DE01AF8010B5A4673
:1027900017999047B8F10108F7D25B4621463846B1
:1027A000179A13E142E00A220092C4F302524FF05A
:1027B000000A022A08D059F804CB032A4FEAEC7128
:1027C0000AD00DE029E02AE009F1070121F0070213
:1027D000F2E802C1914609E00FFA8CFC4FEAEC7175
:1027E000042A03D14FFA8CFC4FEAEC71002907DA76
:1027F0000A460021DCF1000C61EB02012D2202E00F
:10280000220504D52B228DF80420012203E0E207E3
:1028100001D02022F7E7904659E00A2102E0102279
:102820000DE010214FF0000A00910BE010224FF054
:10283000000A44F004040827009203E008224FF045
:10284000000A0092C4F30252022A05D059F804CBC0
:102850000021032A08D009E009F1070121F007024D
:10286000F2E802C1914605E01FFA8CFC042A01D16E
:102870000CF0FF0C4FF00008220728D5702806D076
:10288000009B83F0100353EA0A0305D00EE04022B8
:102890008DF80420012208E05CEA010206D0302213
:1028A0008DF804208DF8050002229046009B83F0ED
:1028B000080353EA0A030AD15CEA010201D1620764
:1028C00005D530228DF804204FF001087F1E5828CE
:1028D00004D034A003900EA802900DE036A0F9E7D2
:1028E00053466046009AFDF76FFE84460398825C6B
:1028F0000298401E029002705CEA0100F0D102983A
:1029000006A9081A00F1200A600702D524F48034D1
:1029100000E00127574502DDA7EB0A0000E0002098
:1029200000EB0A01009005984144401A0590E0032D
:1029300006D45B462146179A059800F0B3F9054482
:10294000002706E001A85A46C05D179990476D1C04
:102950007F1C4745F6DBE0030CD55B462146179A02
:10296000059800F09FF9054404E030205A46179975
:1029700090476D1C0099481E00900029F5DC08E086
:10298000029802995A460078491C0291179990477B
:102990006D1CBAF10001AAF1010AF1DC65E1000049
:1029A0000928010030313233343536373839616225
:1029B00063646566000000003031323334353637E9
:1029C00038394142434445460000000000F058F9C0
:1029D0000544761C307800287FF4ECAD19B0284609
:1029E000BDE8F08F620700D4062709F1070222F044
:1029F000070CFCE80223E14603F000485FEA080CFC
:102A000002D00FF2702C0DE05FEA045C02D50FF2E9
:102A1000682C07E05FEAC47C02D00FF2602C01E072
:102A2000AFF2700C4FF0FF3823F00043CDF850C0E8
:102A300065280CD006DC452809D046281DD047283B
:102A40003DD13DE0662818D067287ED138E00021CE
:102A5000112F01DB112000E0781CCDE9000106A94F
:102A60000EA8FFF7DDFCDDE90F010E9A03910021AE
:102A7000009207F1010A04914DE04FF000400097E9
:102A8000CDE9011006A90EA8FFF7CAFCDDE90F0287
:102A900003920E9B11990022DDF80CA00093049282
:102AA00011B9791C00EB010AB7EB0A0004D4C0F19C
:102AB000FF3007F1010A0490AAEB0700019044E0FF
:102AC000012F00DA01270021112F01DD112000E084
:102AD0003846CDE9000106A90EA8FFF7A1FCDDE903
:102AE0000F010E9A0391002104910092BA4621072A
:102AF0000CD40399514500DA8A46BAF1010F05DD7D
:102B0000009AAAF10101515C302908D0B84202DADA
:102B100010F1040F06DA0121CDE9011015E0AAF148
:102B20000101E9E7002805DC049901440491AAEBBE
:102B3000000102E0411C514500DD8A460499401A1B
:102B4000401C01904FF000400290200704D40198EF
:102B5000504501DBCDF8048000208DF84F0002982D
:102B60000DF14F07B0F1004F25D02B200E900298A9
:102B70004FF0020800280CDA404202902D200E90FF
:102B800007E00A210298FDF709FD3031029007F8AD
:102B9000011DB8F10001A8F10108F2DC029800283B
:102BA000EFD1791E0E980870307800F0200040F0C8
:102BB000450007F8020D12A8C01B00F10708149881
:102BC000007800B1012000EB0A01019801EBE071EF
:102BD00005984144401A401E0590E00306D45B4628
:102BE0002146179A059800F05DF80544149800787E
:102BF00018B15A46179990476D1CE00324D55B46DF
:102C00002146179A059800F04DF805441CE00498F9
:102C1000002807DBDDE90301884203DD0098405C02
:102C2000179901E0179930205A469047049805F10A
:102C30000105401C04900198401E019004D12E20F3
:102C40005A46179990476D1CBAF10001AAF1010A82
:102C5000DDDC05E017F8010B5A46179990476D1C0B
:102C6000B8F10001A8F10108F4DC5B462146179A8F
:102C70000598ABE62D0000002B00000020000000AE
:102C80002DE9F041044600251E461746880404D469
:102C900005E039462020B0476D1C641EF9D5284652
:102CA000BDE8F0812DE9F041044600251E4690461E
:102CB000C80301D5302700E02027880404D505E0AB
:102CC00041463846B0476D1C641EF9D52846BDE81C
:102CD000F0810A68531C0B6010707047FEF758FAB9
:102CE000FFF7A6F9FFF79CF8834882490C220160A0
:102CF0004FF4E131416000218160C160C0E90412FC
:102D00008161C161FEF703FE00B1FEE7FFF7CEF877
:102D1000FFF7E8F87849AC3901F1F000FFF77CF8EB
:102D20003220FDF7C3FE754D00244FF400794FF4B7
:102D30002F7701224E4649462846FDF7A7FF384621
:102D4000FDF7B4FE002231462846FDF79FFF3846C6
:102D5000FDF7ACFE641C052CEBDBFDF79DFF684C1A
:102D60000026606064484430FFF724F9C4E902019A
:102D70003220FDF79BFE761C032EF3DBD4E9020123
:102D8000DFF87CA14FF0200B0AF1180A40F2EE2781
:102D9000C4E9040158484430FFF70CF9D4E9022390
:102DA000FDF7C8FB15D254484430FFF703F9C4E9D6
:102DB000020106468846D4E904010022514BFDF782
:102DC000F3F932464346FDF79DFB46D801202070BB
:102DD00043E04FF41670FDF769FE47484430FFF7B3
:102DE000E9F8D4E90223FDF78DFB36D2207898B3B9
:102DF000A0460022D8E90201434BFDF776FA0646C9
:102E00003D480C464430FFF7D5F832462346FDF7DF
:102E100091FBEED90122D40321462846FDF736FF67
:102E20000122560331462846FDF730FF4FF47A70F1
:102E3000FDF73CFE002221462846FDF727FF002231
:102E400031462846FDF722FF012249462846FDF774
:102E50001DFF54465D462AE0FFE7FDF71DFF616850
:102E6000401AB84296D324484430FFF7A3F80246EC
:102E700023480B4625A11830FFF71EFA20480821E9
:102E80001830FFF761F8082806D252465946115407
:102E9000401C80B20828FAD119491423082218319D
:102EA0001548FEF791FDFDF7F7FE606072E71248E6
:102EB0004430FFF77FF8024611480B4613A1183043
:102EC000FFF7FAF90E4808211830FFF73DF80828F7
:102ED00004D22554401C80B20828FAD10849142392
:102EE000082218310448FEF76FFD3846FDF7DEFD75
:102EF000DDE7000000380140E4000020000C014044
:102F00000000002000C072400000344025302E3107
:102F1000660A00002DE9F04D1D460C4698B0174694
:102F200021F0004123F00043002814BF4FF0010CB2
:102F30004FF0000C0CEB440CFE4A0CEB02064FEA7F
:102F4000620C66452BD33E0018BF012606EB4506F2
:102F50001644F94A964222D3F84A53EA070C02D0A3
:102F6000944205D148B918B000201146BDE8F08D53
:102F7000002808BF4FF0000C01D04FF0010C0CEB03
:102F8000440212F5001F0AD8002F14BF4FF0010CA5
:102F90004FF0000C0CEB450212F5001F07D918B0DA
:102FA0003A462B462146BDE8F04DFFF70BBA00220A
:102FB000DFF88CA3002CB8BF534526DADFF884C3B2
:102FC0006345A8BF022220DADFF870C39C451CDCF1
:102FD000DFF874C30CEB235CBCF1140F08DDCCF1FB
:102FE000340627FA06FC0CFA06F6BE420DD108E0BC
:102FF0005FB9CCF1140623FA06FC0CFA06F69E42E1
:1030000003D10CF00102C2F1020251EA000C19D105
:10301000002D17DA002C18BF022A01D0012A07D090
:103020000220FFF7F7F918B0BDE8F04DFFF7C2B97D
:103030000220FFF7EFF9FFF7BDF918B081F000416A
:10304000BDE8F08DB7F1000C6CD1534525D104F1EA
:10305000804212F5801201BF00280020B74918B045
:1030600008BFBDE8F08DB548884207DC002DA1BF40
:103070006046294618B0BDE8F08D07E0281E05DA45
:1030800080F0004118B06046BDE8F08DAF4979444A
:10309000D1E9000118B0BDE8F08DDFF8A0C26345AA
:1030A00025D1002D1FDA19B1514512D1D8B909E047
:1030B000002840F0EC82A24A214618B062F31E01BB
:1030C000BDE8F08D0020214618B060F31E01BDE878
:1030D000F08D08DA18B02346BDE8F04D0246002016
:1030E0006146FDF77AB918B02146BDE8F08D51452B
:1030F00018DAB5F1804F0DD0A5F1005CBCF1FF5C92
:1031000010D1B4F1000C0DDB18B06146BDE8F04DF4
:1031100000F0ECBB234618B00246BDE8F04D19465E
:10312000FDF7E9B8060024F0004C3BD1D9B1514578
:1031300033D1002C06DD002DA1BF0020514618B070
:10314000BDE8F08D002C01DD002D1BDB002C13DA17
:10315000002D11DB012A4FF0000014BF78497C4993
:1031600018B0BDE8F08D022A18BF002C0AD0012A41
:1031700008D1002C06DA0AE0002CB8BF002D11DAC5
:10318000012A04D0002018B00146BDE8F08D18B027
:1031900000204FF00041BDE8F08DA1F14050B0F1AA
:1031A0007F601AD0012000EBE47050EA020421D0C5
:1031B000624C521E4FF0000B104304BF4FF0000B47
:1031C000644C654883427CDD644A654893421FDD58
:1031D000884217DB002D25DB37E0002C00DA4AB1EE
:1031E000022A0CBF01204FF0FF3018B0BDE8F04DAF
:1031F000FDF7E7BA0120FFF70DF918B0BDE8F04D73
:10320000FFF7E2B84D4A8A4202DC002D0ADC1CE0DE
:10321000814202DA002D18DA04E0484B994220DDA1
:10322000002D12DD0220FFF7F5F8FFF7D3F8054671
:103230000E460022534658462146FDF75CF818B06A
:1032400066F31E012846BDE8F08D0220FFF7E2F884
:10325000FFF7C8F80A46214618B062F31E01BDE820
:10326000F08D002230466146FDF73FF880460E465D
:103270006FF00102FDF78EFA4FF05532394BFDF732
:1032800037F842463346FDF736F80022364BFDF755
:103290002FF8824642463346049110461946FDF700
:1032A0002AF85246049BFDF726F88A4600904FF014
:1032B000C0422E4B40463146FDF71DF82C4A2B4BA1
:1032C00000E027E0CDE9060151460098FDF713F82C
:1032D00082460191274A284B40463146FDF70BF8BC
:1032E0005246019BFDF701F882460B4602460591C6
:1032F000DDE90601FCF758FFDDE9062300268846D4
:103300003046FCF7F2FF5246059BFCF7F1FF024600
:1033100000F07EB90020B1F5801F07DA3522304673
:103320006146FDF737FA06466FF0340000EB215096
:1033300024E00000FFFF1F00FFFF0F000000F03F30
:103340000000F07F0000404301FCFFFF4609000041
:103350000000F0FF0000F0BF0000E0410000F0437B
:10336000FFFFEF3F5555D53F0000E03F4715F73FC2
:10337000FE822B6544DF5DF80BAE543EA0F2FF30B9
:103380000190C1F3130040F07F6141F04051029180
:10339000FE498842D8BF002004DDFD498142C8BFF4
:1033A000012001DD0D9008E000200D900198401CE7
:1033B00001900298A0F5801002900299F548784497
:1033C0000B910D9900EBC100D0E900230F9330461B
:1033D0000A920B99FCF789FFCDE90601DDE90A2184
:1033E00030460F9BFCF7E0FE02460B460020EA4900
:1033F000FCF7F3FF059102460B460090DDE906015C
:10340000FCF779FF1490E5488A464FF000087844AD
:103410000299006812904FF0005040EA61010D9847
:103420000F9B01EB804000F5002109910A9A129848
:10343000FCF75BFF32460B9BFCF75AFF42465346B4
:10344000FCF759FF0646029140465146099B129AE5
:10345000FCF751FFDDE90623FCF74AFF3246029BE9
:10346000FCF743FF059B009AFCF745FF0091149A77
:103470000490534610461946FCF73DFF06460246A7
:10348000C7480B46029106217844FEF73DFFCDE97F
:103490000510029B324610461946FCF72CFFDDE969
:1034A0000532FCF728FF059106465346404619466B
:1034B000149AFCF779FE009B049AFCF71CFF324635
:1034C000059BFCF771FECDE90510424653461046B8
:1034D0001946FCF710FF0022B24B02910A90FCF74C
:1034E00063FEDDE90532FCF75FFE0E464246AD4B5A
:1034F0004046FCF7FAFE029B0A9AFCF7F6FEDDE96D
:103500000532FCF7F5FE424602910A90334610461A
:103510005146FCF7F0FECDE906015346149A029994
:103520000A98FCF7E8FE8A46029033464246009924
:103530000498FCF7E0FE5346029AFCF735FE8246FB
:103540000B4602460591DDE90601FCF72DFEDDE99B
:103550000623002088460646FCF7C7FE5246059B18
:10356000FCF7C6FE824609914FF060428E4B304612
:103570004146FCF7C0FE049006918C4A8A4B5046A7
:103580000999FCF7B8FE82460291894A894B304678
:103590004146FCF7B0FE5246029BFCF705FE864B07
:1035A0007B440D9A03EBC203D3E90023FCF7FCFD37
:1035B0000E9007910198FDF704F90591DDE90613D6
:1035C00082460E9A0498FCF7EFFD7C4A7A440D9BE4
:1035D00002EBC303D3E9002300930292FCF7E4FD5E
:1035E0005246059BFCF7E0FD0026884652463046D1
:1035F000059BFCF77AFE009B029AFCF776FE069B81
:10360000049AFCF772FE079B0E9AFCF771FE0246C5
:1036100000200B46029038462946FCF76CFE824695
:1036200001912B4638461946029AFCF75EFE324657
:103630004346FCF760FE5246019BFCF7B5FD07468A
:103640008A463246434629460298FCF754FE054610
:103650000E463A465346FCF7A7FD594A8846914222
:1036600021DBA8EB020353EA000210D12A463346BD
:10367000FCF73BFECDE90401524A534B3846514614
:10368000FCF792FDDDE90423FCF754FF21D2022070
:10369000FEF7C0FEFEF79EFE0A46214618B062F312
:1036A0001E01BDE8F08D494B28F000429A4210D32C
:1036B000474A08EB020353EA00027FF4C6AD2A46EC
:1036C0003346FCF712FE3A465346FCF733FF7FF6CB
:1036D000BCAD0022019228F000403E493E4A01EB79
:1036E0002051824223DA481C4FF4801121FA00F065
:1036F00040443A4AC0F30A517A44394BA1F2FF31AF
:10370000CB4020EA0303C0F3130040F48010C1F162
:103710001401C84012680190B8F1000FBCBF4042CC
:10372000019028463146FCF7E0FD05460E462A4644
:10373000334638465146FCF737FD4FF00008424605
:10374000284B40460591FCF7D6FDCDE90601264AF7
:10375000264B40460599FCF7CEFD009102902A4683
:10376000334640460599FCF7C0FD3A465346FCF700
:10377000BFFD1F4A1F4BFCF7BEFD009B029AFCF7E2
:1037800013FD0746884602460B4635E08E98030037
:103790007AB60B008E0500000000F03FC605000061
:1037A000F40400000000084009C7EE3FFD033ADCC6
:1037B000F5015B14E02F3EBECC0300009003000037
:1037C00000009040FE822B654715973C00CC90404E
:1037D00000346F3F01FCFFFF0000E03FDC0200000F
:1037E000FFFF0F00432EE63F396CA80C615C20BE42
:1037F000EF39FAFE422EE63FDDE90601FCF7D4FC84
:10380000DDE9062305460E46FCF76FFD3A464346C2
:10381000FCF76EFD0F462A463346009010461946C7
:10382000FCF769FD824602462E4888460B46052174
:103830007844FEF769FD52464346FCF75CFD2A4694
:103840003346FCF755FD80468A463B4628463146BE
:10385000009AFCF750FD3B46009AFCF7A5FC069148
:10386000009000224FF0804340465146FCF73DFD5A
:103870000F460C904246534628463146FCF73BFD26
:103880003B460C9AFCF7A9FD069B009AFCF72DFD20
:103890002A463346FCF729FD0022134BFCF728FD8E
:1038A000054601980E4601EB00510815002810DC72
:1038B00028463146019AFCF76DFFFEF711FD0428FA
:1038C00008BFFEF78FFD28463146019AFCF762FFDC
:1038D00005460B4618B02A4658462146BDE8F04D2D
:1038E000FCF709BD7C0100000000F03F2DE9F0412C
:1038F00006460F46FCF7A0FF041E0D4618BF012028
:10390000284320F00040C0F17F6000F1E040C00F8C
:103910000ED0301C18BF0120384320F00040C0F109
:103920007F6000F1E040C00F04BF0120FEF772FD90
:1039300020462946BDE8F08100000000000000009C
:103940000102030406070809000000000102030445
:10395000000000000000F03F000000000000F83F01
:1039600000000000000000000000004003B8E23F3B
:10397000000000000000000006D0CF43EBFD4C3EED
:10398000033333333333E33FFFAB6FDBB66DDB3FE2
:103990004D268F515555D53F01411DA96074D13F2A
:1039A00065DBC9934A86CD3FEF4E454A287ECA3F24
:1039B0003E5555555555C53F93BDBE166CC166BFA6
:1039C0002CDE25AF6A56113FF16BD2C541BDBBBE9F
:1039D000D0A4BE726937663E0000000000000000FF
:1039E000003A00080000002034000000F423000822
:1039F000343A000834000020340500000424000894
:103A000000000000000000000000000000000000B6
:103A100000000000000000000000000000000000A6
:103A200001000000100000000000000000A24A0495
:043A30000000000092
:04000005080000ED02
:00000001FF
